:020000040800F2
:100000007806002065010008050F0008BD0E0008F5
:1000100000000000000000000000000000000000E0
:10002000000000000000000000000000090F0008B0
:100030000000000000000000070F00080B0F000880
:1000400077010008770100087701000877010008B0
:1000500077010008770100087701000877010008A0
:100060007701000877010008770100087701000890
:100070007701000877010008770100087701000880
:100080007701000877010008770100087701000870
:100090007701000877010008770100087701000860
:1000A0007701000877010008770100087701000850
:1000B0007701000877010008770100087701000840
:1000C00000F002F800F03EF80CA030C80838241800
:1000D0002D18671EA246AB4654465D46AC4201D180
:1000E00000F030F87E460F3EB6460FCC0126334274
:1000F00000D0FB1A3343A246AB461847F01000006D
:1001000010110000103A02D378C878C1FAD852070B
:1001100001D330C830C101D504680C6070470000BD
:100120000023002400250026103A01D378C1FBD813
:10013000520700D330C100D50B6070471FB51FBDFB
:1001400010B510BD00F04DF81146FFF7F7FF00F0B5
:10015000FDFE00F065F803B4FFF7F2FF03BC00F00A
:100160006BF800000748804707480047FEE7FEE7B6
:10017000FEE7FEE7FEE7FEE704480549054A064BB1
:1001800070470000150F0008C1000008780000202B
:1001900078060020780200207802002001E004C0E8
:1001A000091F0429FBD28B0701D50280801CC907D7
:1001B00000D00270704700290BD0C30702D0027034
:1001C000401C491E022904D3830702D50280801CEB
:1001D000891EE3E70022EEE70022DFE77047704761
:1001E0007047754600F024F8AE4605006946534650
:1001F000C008C000854618B020B5FFF7BDFF60BC41
:10020000B64600260027C0C5C0C5C0C5C0C5C0C50C
:10021000C0C5C0C5C0C5403D490849008D467047AE
:1002200010B50446C046C0462046FFF794FF10BDF7
:10023000004870471000002001491820ABBEFEE7BF
:100240002600020070470000F0B58DB00D68002D4B
:1002500000D1CBE00F466649884201D0062200E07B
:1002600005220B21090743180A21CB410093052BD6
:1002700000D30092012400210E4604940C910A91AF
:100280000B913A460797019017E03943089E5A4A66
:100290001160079A15682946E14017460A9A121D0F
:1002A0000A920836641C0C9A921C0C920B9A521CEF
:1002B0000B923A46002900D198E0671E04990997ED
:1002C000B9400D40E6D008960695536803261F46B0
:1002D00037407D1E012D03931AD810460322059442
:1002E0000C9CA2400646019885689543F6680C9CD4
:1002F000A640059C2E438660DD06ED0F099EB540A5
:1003000046688E432E434660D5430B994B000EE062
:1003100031460C988140CD43032F0346019806D106
:100320000C9905913746079A089E039B24E0C16803
:1003300002952940079A95689D400D43C560022F9C
:10034000059316D117461C220A990A400F219140A5
:10035000099DED08AD0045192E6A8E43396991401B
:100360003A463143019829627B6803271F40089E63
:1003700001E0089E039B029D05998F40016829407A
:10038000394301609903890F069F83D018203040BC
:100390000F2181400325099EAE43164A95192E6E02
:1003A0008E43009981403143296611680798466859
:1003B000F50201D5394300E0B9430E4A1160516896
:1003C000B50201D5394300E0B9430A4A51600A49F0
:1003D0004968B50301D5394300E0B943064A516085
:1003E0001168F20300D550E7B9434FE70DB0F0BDF7
:1003F000001400500018024080180240002A02D069
:1004000018228150704728228150704705480068A3
:100410007047C0461A48406802490A6810180860C8
:100420007047C0467000002080B5032000F008F837
:10043000002801D0012080BD00F024F8002080BDFC
:1004400070B50F4E71680124002916D005467D2035
:10045000C00000F0B0FD01469448006800F0ABFD1C
:1004600000F012FD032D08D8002806D10024E04337
:100470002946224600F01CF83560204670BDC04673
:100480000000002082B001200107084A13680B43D6
:10049000136013680B4001930199916801439160C7
:1004A000916801400091009802B0704758100240D6
:1004B000002805D40322034693430C4A9A1806E009
:1004C0000F220240083A03239A43074BD2188007B1
:1004D000C00E8901C9B28140FF2383401068984350
:1004E000084310607047C0461CED00E000E400E0E7
:1004F00070B5032461021A4D2B680B40012672026D
:1005000090421AD193421FD0286888431043286034
:1005100066480168322048430D4900F04CFD411CFB
:10052000B0026A694B1E8B4202D202401946F8D1D2
:100530006969014208D0204670BDB002834203D0F1
:100540002A688A4302432A600024204670BDC046C0
:1005500040420F00032041020148006808407047F4
:1005600000700040F0B583B00B4604464A4D286841
:1005700007273840884208D22868B84318432860C3
:1005800028683840984200D082E02068C107434E76
:1005900050D0606804282AD8810001A251588F46A3
:1005A000B5050008C1050008CD050008D9050008FB
:1005B000E505000831460839096889071BD467E05A
:1005C000314608390968490562D514E031460839D1
:1005D000096889035CD50EE031460839096889014C
:1005E00056D508E02E494968890751D503E02C49C2
:1005F000096889074CD5029331680197B9430143D3
:1006000037463160FFF702FF0646264D386838212D
:1006100001406068C000814207D0FFF7F7FE801BF1
:10062000A842F3D9032003B0F0BD2068029B1A4D05
:100630003E46019F810706D50F21090232688A4391
:10064000A1681143316029683940994207D9296866
:10065000B9431943296029683940994218D14007A4
:1006600005D5380331688143E0680843306000F005
:100670001FF831680905090F0B4A515C1F220A4017
:10068000D0400A4908600320FFF7DAFE03B0F0BD4E
:10069000012003B0F0BDC046002002400810024017
:1006A0009010024088130000AC11000808000020E0
:1006B00010B52A4C201F006838210140206805D061
:1006C000182922D10322104001281ED120460C38BF
:1006D0000268120703D427480068000A01E0006896
:1006E00000090F22024000230B2A184600D81046AA
:1006F0008000214A12580029104602D1182912D030
:1007000010BD18461829FBD10DE008460838002214
:10071000272805D8400812A318581829F0D102E05C
:1007200010461829ECD121680320084021684906A9
:10073000490F491C022803D0032802D1104A00E0C7
:100740000E4A20684004400E504300F034FC2168FB
:10075000490F491C00F02FFC10BDC0460C10024090
:100760000024F40000093D0000000000007D0000AE
:100770000080000094100240BC1100080024F40026
:1007800000093D00F0B589B0F34CA668382103910B
:100790000E40E16803273940049105900078C006B7
:1007A00051D405980078C00711D0102E06D0182E0D
:1007B00000D064E10498032800D060E1FC480068A0
:1007C000800304D505984068002800D1F3E005981F
:1007D0000078800719D5082E06D0182E00D05DE1CC
:1007E0000498022800D059E1F14A10684005059BA1
:1007F00003D5D868002800D1DDE07F2000065168CD
:100800008143186900060843506005980078000786
:10081000F24EE74C6CD4059A1078400700D589E079
:100820001078800600D5FDE00598C46A0025002CEC
:1008300000D1FEE2DE498868039A1040182800D0F3
:100840008CE10125F5E2002E06D0182E00D099E0AB
:100850000498012800D095E020688007059A03D508
:10086000D069002800D1A6E0536A2068000700D5AF
:10087000A5E0DA4840680009F0252840834200D905
:10088000A3E020680821014321602068A8431843A1
:100890002060FF20000261688143106A0002084363
:1008A0006060002E00D0B0E20125A06DC00002976C
:1008B00000D530E22807A16D0143A165A16D01407B
:1008C00008910898012004071F46FFF743FE3A46A7
:1008D000B749896DA143B64CA1656902884200D130
:1008E00021E27F2A00D923E2703A5042504181E24E
:1008F00005994869002800D1ADE08869411E88410A
:1009000080007168042291430818706070680121AA
:1009100001437160FFF77AFD05467068800700D5D6
:1009200079E7FFF773FD401B1128F6D93D462846AD
:1009300009B0F0BD0297012004900107A06D0840A6
:10094000019006D1A06D0843A065A06D08400690F7
:1009500006980091A24C2068C00557D4049807025D
:10096000206838432060FFF751FD05462068384273
:100970004CD1FFF74BFD401B0228F7D9029D2846BA
:1009800009B0F0BD20680599C969002900D1CFE000
:10099000012108432060FFF739FD054620688007E4
:1009A00000D507E1FFF732FD401B0228F6D93D468E
:1009B000284609B0F0BD0125284609B0F0BD2068E1
:1009C000F0252840834200D85BE701950125A06D02
:1009D000C00002977FD42807A16D0143A165A16DD6
:1009E000014007910798012004071F46FFF7B2FD59
:1009F0003A466F49896DA1436D4CA16569028842F1
:100A000070D07F2A00D817E102201AE10598876884
:100A1000F80770D130680499884330603068042149
:100A2000884371E0B0680599896A002900D1F0E037
:100A300001210843B060FFF7E9FC0546B068800774
:100A400000D5F1E6FFF7E2FC401B0228F6D93D464F
:100A5000284609B0F0BD7068012188437060FFF737
:100A6000D5FC05467068800700D4D4E6FFF7CEFCBD
:100A7000401B1128F6D93D46284609B0F0BD01209B
:100A80008304059949680B43052212049342F84CEC
:100A900000D0F6E022680A432260F8E0F44B1868C0
:100AA00001218C02059AD2680902002A00D110E1C6
:100AB00008431860FFF7AAFC0546ED48006820428D
:100AC00000D037E1FFF7A2FC401B0228F5D93D46D4
:100AD000284609B0F0BD1F46FFF73CFD3A466902C3
:100AE00088428ED1812A00D2AAE0B02A029F00D883
:100AF00037E10220A6E03068790703D504210843D6
:100B000030603068049908433060DD4CFFF77EFCAC
:100B10000546002F3ED0029F3068800762D4FFF761
:100B200075FC401BA042F7D93D46284609B0F0BDF0
:100B3000012188432060FFF769FC05462068800793
:100B400000D42EE6FFF762FC401B0228F6D93D4692
:100B5000284609B0F0BDC0460010024002970127A8
:100B60003A060868049290430860FFF74FFC064677
:100B7000022C00D09DE07C06BD480068204200D1D8
:100B8000F3E0FFF743FC801B0228F5D9029D2846BD
:100B900009B0F0BD029F3068800700D4ACE0FFF7D9
:100BA00035FC401BA042F6D93D46284609B0F0BDB1
:100BB0000010024020680821014321602068F021D4
:100BC0008843059A516A01432160FF200002616851
:100BD0008143106A000208436060E2E59010024021
:100BE0000070004030680499CF02059989680906B1
:100BF00000D5A7E0802188433060306838427ED03D
:100C0000FFF704FC401BA042F7D9029D284609B01B
:100C1000F0BD01218843B060FFF7F8FB0546B068DE
:100C2000800700D400E6FFF7F1FB401B0228F6D94D
:100C30003D46284609B0F0BD703A5042504100E0B0
:100C40000020029FC0490A6807239A4312180A60CD
:100C500009681940814200D0EBE020680821014377
:100C60002160206801998843059A516A01432160F7
:100C7000FF20000261688143106A0002084360603F
:100C8000C3E0236893432360002900D1D4E04404E7
:100C9000FFF7BCFB054676480068204200D096E589
:100CA000FFF7B4FB401B6428F5D93D46284609B040
:100CB000F0BD7C06029F6E480068204200D1B8E07B
:100CC000FFF7A4FB801B0328F5D33D46284609B057
:100CD000F0BD88431860FFF799FB0546644800683B
:100CE000204200D191E5FFF791FB401B0228F5D986
:100CF0003D46284609B0F0BD3068000667D401982B
:100D00000028029F5A49059A00D089E5886D009B0A
:100D10009843886584E51F46FFF71CFC3A46690244
:100D2000884200D0DDE5812A63D3B02A00D897E05D
:100D300002205FE07F2000064D4A516881430598FC
:100D400000695FE580210843306030683842D6D1C1
:100D5000FFF75CFB401BA042F7D9029D284609B073
:100D6000F0BD902A7AD800206CE7414BD8680397F1
:100D700044490140059807463037C4CF0097C76BF8
:100D80000197076C406C0A433243009909021143F2
:100D90003943029F014301980143D960039800073A
:100DA000D9680143D9601868049908431860FFF7AF
:100DB0002DFB06462E48006820423AD1FFF726FB5D
:100DC000801B0228F6D93D46284609B0F0BD3068A0
:100DD0008021884330600498C702306838428ED042
:100DE000FFF714FB401BA042F7D9029D284609B02B
:100DF000F0BD0020029F54490A6807239A43121845
:100E00000A6009681940814213D1FFF751FCA168BB
:100E10000905090F174A515C1F220A40D0401649A4
:100E2000086016480068FFF70BFB0546002800D154
:100E3000B7E4284609B0F0BD4404FFF7E7FA0546D9
:100E40000B480068204200D1C1E4FFF7DFFA401BE5
:100E50006428F5D93D46284609B0F0BD0120F1E6E9
:100E6000902A029F01D80020C5E70120C3E7C046B1
:100E700000100240AC110008080000200000002013
:100E8000881300008C80C111401E010E01D001208A
:100E900070470749074A5060074803680B40032121
:100EA0008907591801600020906007211160704780
:100EB000FFFFFF0010E000E020ED00E0FEE7000093
:100EC000F0B587B0002406940D4801680127394326
:100ED0000160006838400190019805200507202630
:100EE000284631462246FFF789FA05940494039771
:100EF000029602A92846FFF7A7F907B0F0BDC04641
:100F00004C100240FEE77047704780B5FFF782FA49
:100F100080BD00000120C106094A11600949096825
:100F2000C9030CD508490A6AD2B2CC2A07D00A6A8A
:100F3000D2B2AA2A03D080040A6802430A6070472A
:100F400008ED00E0802002400020024098B0FFF74A
:100F50006BFA05AC201D4821FFF73EF900250495EA
:100F600003950295019501267002FFF7C1FA1095CD
:100F7000B0200E900D950C96102005902046FFF79E
:100F800001FC002801D072B6FEE704950395029596
:100F90000720019001A80121FFF7E4FA002801D001
:100FA00072B6FEE7FFF78CFF052000072021012223
:100FB000FFF724FAF8E743088B421AD3002203090B
:100FC0008B4279D3030A8B425ED3030B8B4242D30D
:100FD000030C8B4227D30902FF2212BA030C8B4267
:100FE00002D31212090203D0030B8B4233D31AE04F
:100FF000D3E0411A8041401C704703460B4371D433
:1010000043088B42F5D3002203098B4254D3030AD1
:101010008B4239D3030B8B421DD3030C8B4202D37B
:1010200094466EE0090AC30B8B4201D3CB03C01A6E
:101030005241830B8B4201D38B03C01A5241430BA5
:101040008B4201D34B03C01A5241030B8B4201D395
:101050000B03C01A5241C30A8B4201D3CB02C01A00
:101060005241830A8B4201D38B02C01A5241430A78
:101070008B4201D34B02C01A5241030A8B4201D367
:101080000B02C01A5241CDD2C3098B4201D3CB010E
:10109000C01A524183098B4201D38B01C01A5241BD
:1010A00043098B4201D34B01C01A524103098B42C1
:1010B00001D30B01C01A5241C3088B4201D3CB00AC
:1010C000C01A524183088B4201D38B00C01A52418F
:1010D00043088B4201D34B00C01A5241411A52417E
:1010E00010007047CA0F00D04942031000D340429D
:1010F000534000229C4603098B422DD3030A8B42A6
:1011000012D38901FC2212BA030A8B420CD3890143
:1011100092118B4208D3890192118B4204D3890129
:1011200037D0921100E08909C3098B4201D3CB016A
:10113000C01A524183098B4201D38B01C01A52411C
:1011400043098B4201D34B01C01A524103098B4220
:1011500001D30B01C01A5241C3088B4201D3CB000B
:10116000C01A524183088B4201D38B00C01A5241EE
:10117000D9D243088B4201D34B00C01A5241411AC5
:1011800000D201465241104663465B1000D34042F4
:10119000704763465B1000D3404201B50021004216
:1011A00001D0C9430846C046C04602BD0000000049
:1011B000000000000102030406070809A0860100E0
:1011C000400D0300801A060000350C0040420F005D
:1011D00080841E0000093D0000127A000024F40003
:1011E00000366E010048E801006CDC0210120008B5
:1011F0000000002010000000040100082012000878
:101200001000002068060000200100080000000017
:10121000040000000100000000093D000000000083
:04000005080000C12E
:00000001FF
