:020000040800F2
:100000006807002089010008250400080B04000887
:1000100021040008D3020008DB0F000800000000E4
:10002000000000000000000000000000F1050008D2
:10003000D702000800000000990400080507000826
:10004000A3010008A3010008A3010008A301000800
:10005000A3010008A3010008A3010008A3010008F0
:10006000A3010008A3010008A3010008A3010008E0
:10007000A3010008A3010008A3010008A3010008D0
:10008000A3010008A3010008A3010008A3010008C0
:10009000A3010008A3010008A3010008A3010008B0
:1000A000A3010008A3010008A3010008A3010008A0
:1000B000A301000869070008A3010008A3010008C4
:1000C000A3010008A3010008A3010008A301000880
:1000D000A3010008D90A0008A3010008A301000831
:1000E000A3010008A3010008A301000800F002F822
:1000F00000F03AF80AA090E8000C82448344AAF188
:100100000107DA4501D100F02FF8AFF2090EBAE885
:100110000F0013F0010F18BFFB1A43F0010318473B
:100120000815000028150000103A24BF78C878C1CF
:10013000FAD8520724BF30C830C144BF04680C60ED
:10014000704700000023002400250026103A28BF35
:1001500078C1FBD8520728BF30C148BF0B60704739
:100160001FB51FBD10B510BD00F07AF81146FFF79E
:10017000F7FF01F00DF800F098F803B4FFF7F2FF75
:1001800003BC00F09FF80000094880470948004779
:10019000FEE7FEE7FEE7FEE7FEE7FEE7FEE7FEE737
:1001A000FEE7FEE704480549054A064B7047000094
:1001B00009070008ED00000868010020680700201A
:1001C00068030020680300204FF000020429C0F0FB
:1001D000128010F0030C00F01E80CCF1040CBCF176
:1001E000020F18BF00F8012BA8BF20F8022BA1EBCB
:1001F0000C0100F010B85FEAC17C24BF00F8012BAD
:1002000000F8012B48BF00F8012B7047704770477A
:1002100070474FF0000200B51346944696462039C9
:1002200022BFA0E80C50A0E80C50B1F12001BFF4AF
:10023000F7AF090728BFA0E80C5048BF0CC05DF815
:1002400004EB890028BF40F8042B08BF704748BF63
:1002500020F8022B11F0804F18BF00F8012B7047D7
:10026000754600F02BF8AE4605006946534620F06F
:100270000700854618B020B5FFF794FFBDE8204081
:100280004FF000064FF000074FF000084FF0000B52
:1002900021F00701AC46ACE8C009ACE8C009ACE805
:1002A000C009ACE8C0098D46704710B50446AFF3ED
:1002B00000802046BDE81040FFF75FBF0048704750
:1002C0000801002001491820ABBEFEE7260002000D
:1002D000704700BFFEE770472DE9F0410246002558
:1002E0000026002000230024002791F803C00CF012
:1002F0000F0591F803C00CF0100CBCF1000F03D0F7
:1003000091F802C04CEA050591F800C0BCF1000F5D
:1003100031D0146800202BE04FF0010C0CFA00F3F0
:10032000B1F800C00CEA03069E4220D183004FF0D2
:100330000F0C0CFA03F7BC4305FA03FC4CEA040467
:1003400091F803C0BCF1280F06D14FF0010C0CFA54
:1003500000FCC2F814C00AE091F803C0BCF1480FD9
:1003600005D14FF0010C0CFA00FCC2F810C0401C83
:100370000828D1D31460B1F800C0BCF1FF0F34DD00
:10038000546800202EE000F1080C4FF0010808FA34
:100390000CF3B1F800C00CEA03069E4221D18300A1
:1003A0004FF00F0C0CFA03F7BC4305FA03FC4CEAC0
:1003B000040491F803C0BCF1280F05D100F1080C2A
:1003C00008FA0CF8C2F8148091F803C0BCF1480F89
:1003D00007D100F1080C4FF0010808FA0CF8C2F838
:1003E0001080401C0828CED35460BDE8F08102463E
:1003F000002093680B400BB1012000E00020704703
:100400000AB1016100E04161704700BFFEE70000F2
:100410004AF6AA20014908607047000000300040F9
:1004200000BFFEE77047000070B5002100230F22D7
:10043000C47804B3154C246804F4E064C4F5E064A3
:10044000210AC1F10403CA40447804FA03F1847814
:100450001440214309010E4C0678A155047804F09C
:100460001F050124AC4005786D11AD0005F1E025B4
:10047000C5F8004109E0047804F01F050124AC40F0
:10048000044D0678761145F8264070BD0CED00E06D
:1004900000E400E080E100E07047000029B1064A76
:1004A000D2690243044BDA6104E0034AD269824311
:1004B000014BDA61704700000010024029B1064A82
:1004C00012690243044B1A6104E0034A1269824331
:1004D000014B1A61704700000010024029B1064A22
:1004E00092690243044B9A6104E0034A9269824391
:1004F000014B9A61704700000010024029B1064A82
:10050000D2680243044BDA6004E0034AD2688243B3
:10051000014BDA60704700000010024030B5002146
:100520000022002400232D4D6D6805F00C0121B13F
:10053000042905D0082923D105E0294D056022E0D2
:10054000274D05601FE0254D6D6805F47012234DA1
:100550006D6805F48034022505EB92421CB9214DEB
:10056000554305600BE01D4D6D6805F400351DB168
:100570001C4D5543056002E0194D5543056002E0EE
:10058000174D056000BF00BF144D6D6805F0F00108
:100590000909154D6B5C0568DD4045600F4D6D68C0
:1005A00005F4E061090A104D6B5C4568DD4085602B
:1005B0000A4D6D6805F46051C90A0B4D6B5C4568C6
:1005C000DD40C560054D6D6805F44041890B074D60
:1005D0006B5CC568B5FBF3F5056130BD00100240EA
:1005E00000127A0000093D005C0000206C00002031
:1005F000704710B500F002F810BD00000CB50020E7
:10060000019000903348006840F480303149086020
:1006100000BF3048006800F4003000900198401C92
:100620000190009818B90198B0F5A06FF1D1294850
:10063000006800F4003010B10120009001E00020BB
:1006400000900098012843D12348006840F0100032
:10065000214908600846006820F003000860084649
:10066000006840F0020008601A4840681949486074
:100670000846406848600846406840F4806048602A
:100680000846406820F47C1048600846406840F402
:10069000E81048600846006840F08070086000BFBD
:1006A0000C48006800F000700028F9D00948406844
:1006B00020F00300074948600846406840F0020007
:1006C000486000BF0348406800F00C000828F9D1DA
:1006D0000CBD00000010024000200240042808D198
:1006E0004FF0E021096941F004014FF0E02211616F
:1006F00007E04FF0E021096921F004014FF0E0220A
:10070000116170477047000010B51348006840F051
:1007100001001149086008464068104908400E4928
:100720004860084600680E4908400B4908600846C2
:10073000006820F4802008600846406820F4FE002D
:1007400048604FF41F008860FFF753FF4FF00060D0
:100750000449086010BD0000001002400000FFF8CE
:10076000FFFFF6FE08ED00E010B501211C4800F087
:1007700047F9002832D00121194800F03EF8194805
:100780000078401C1749087008460078022825DBCD
:10079000002008700846C088401CC8800846C088F1
:1007A000B0F57A7F03D10020C880012008710D4880
:1007B0004088401C0B49488008464088B0F57A7F45
:1007C0000CD10020488001204870002006490870A4
:1007D0000649087032210648FFF7F6FC10BD0000FC
:1007E00000040040700000200100002000000020F4
:1007F000AE000020CA4302827047CA43028270479B
:1008000021B1028842F00102028004E002884FF622
:10081000FE731A400280704710B50446684884424F
:1008200008D10121C014FFF769FE0021E014FFF791
:1008300065FEC4E0B4F1804F08D101210846FFF7FE
:100840003DFE00210120FFF739FEB8E05D488442FB
:1008500008D101210220FFF731FE00210220FFF71D
:100860002DFEACE05848844208D101210420FFF756
:1008700025FE00210420FFF721FEA0E0534884421A
:1008800008D101210820FFF719FE00210820FFF7F9
:1008900015FE94E04E48844208D101211020FFF754
:1008A0000DFE00211020FFF709FE88E04948844230
:1008B00008D101212020FFF701FE00212020FFF7B1
:1008C000FDFD7CE04448844208D101214014FFF73B
:1008D00015FE00216014FFF711FE70E03F488442CE
:1008E00009D10121C804FFF709FE00214FF40020BF
:1008F000FFF704FE63E03A48844209D1012108056C
:10090000FFF7FCFD00214FF48010FFF7F7FD56E0E4
:100910003448844209D101214805FFF7EFFD002149
:100920004FF40010FFF7EAFD49E02F48844208D158
:1009300001214020FFF7C2FD00214020FFF7BEFD4E
:100940003DE02A48844208D101218020FFF7B6FD0E
:1009500000218020FFF7B2FD31E02548844208D114
:1009600001218015FFF7AAFD0021A015FFF7A6FDC4
:1009700025E02048844209D101210804FFF7BEFD8B
:1009800000214FF48030FFF7B9FD18E01A48844287
:1009900009D101214804FFF7B1FD00214FF40030D7
:1009A000FFF7ACFD0BE01548844208D10121880413
:1009B000FFF7A4FD00214FF48020FFF79FFD10BD3D
:1009C000002C01400004004000080040000C0040E2
:1009D000001000400014004000340140004C014071
:1009E000005001400054014000180040001C00402D
:1009F0000020004000400140004401400048014008
:100A000030B50246002000230024158A05EA0103C0
:100A1000958905EA010413B10CB1012000E0002022
:100A200030BD1AB183890B43838102E083898B43F4
:100A300083817047002202881D4B98420ED01D4BC7
:100A400098420BD0B0F1804F08D01B4B984205D094
:100A50001A4B984202D01A4B984204D14FF68F732A
:100A60001A404B881A43174B984207D0164B9842AE
:100A700004D04FF6FF431A40CB881A4302808B887C
:100A800083850B8803850A4B98420BD0094B98420B
:100A900008D00E4B984205D00D4B984202D00D4B1A
:100AA000984201D10B7A03860123838270470000AC
:100AB000002C0140003401400004004000080040C8
:100AC000000C0040001000400014004000400140B5
:100AD000004401400048014010B5002440F2255177
:100AE000C34800F0BAF900287ED0C14800F070FA7F
:100AF000C4B240F22551BE4800F094F9BD480078D8
:100B000030B1012871D0022870D003286FD1D9E00C
:100B1000B948BA4909784454B848007808BBB8487D
:100B20000078B5490978884204D1B648B4490968C3
:100B3000016016E0B4480078AF490978884204D1D2
:100B4000B048B149096801600BE00020A94908706C
:100B5000AA4908703221A848FFF736FB0020AB49AC
:100B60000870AA480078032824D1A348A34909782B
:100B7000405CA449A14A1278895C88420DD10120C9
:100B80009C4908709D480078401C9C4908700020D2
:100B90009F4948809D49087038E0002095490870B9
:100BA0009649087032219448FFF70EFB00209749C0
:100BB00008702BE0904891490978415C91488F4A30
:100BC0001278805C814215D100208A4908708B48D8
:100BD0000078401C8949087000208D4948808B4866
:100BE0000078401C894903E000E110E03CE0FBE0B4
:100BF00008700BE000207F4908708049087032219E
:100C00007D48FFF7E1FA002080490870EDE07F4859
:100C10000078012811D1022076490870764877497A
:100C20000978445475480078401C744908700020C5
:100C3000774948807549087015E001206D490870B2
:100C40006D486E4909784454724804706B480078C6
:100C5000401C6A49087000206D4948806B48007844
:100C6000401C6A490870C0E06A480078401E674925
:100C70000978884211D103205E4908705E485F49B7
:100C8000097844545D480078401C5C490870002095
:100C90005F4948805D49087013E00220554908709B
:100CA000554856490978445454480078401C5349E3
:100CB000087000205649488054480078401C534929
:100CC000087092E04C484D490978445451480078E6
:100CD000801D4A490978884223D14E480078801DFA
:100CE0004549085CF82804D14B484C490968016023
:100CF00017E048480078801D3F49085C042804D16B
:100D000045484749096801600BE0002039490870EF
:100D10003A49087032213848FFF756FA00203B491B
:100D200008703A480078032836D1334833490978A7
:100D3000415C3948354A1278805C81421FD10020DD
:100D40002C4908702D480078401C2C490870002060
:100D50002F4948802D49087027482849097844546C
:100D60000020264908702B4800780A30C1B222487A
:100D700000F078FB32212048FFF726FA33E000200C
:100D80001C4908701D49087032211B48FFF71CFAE6
:100D900000201E49087026E0174818490978415C70
:100DA0001D481A4A1278805C814210D103201149F3
:100DB000087012480078401C10490870002014493F
:100DC000488012480078401C104908700BE0002051
:100DD000084908700949087032210748FFF7F4F9FB
:100DE00000200A49087000E000BF00BF10BD0000ED
:100DF0000038014000000020AE000020010000206B
:100E00000200002030000020060000202E000020FC
:100E1000700000202F000020340000200A00002075
:100E20000E00002010B50022002340F66A14A142F3
:100E300000D100BF0A1201249440A3B2DC43048015
:100E400010BD21B1828942F40052828104E082897E
:100E50004DF6FF731A408281704770B50246002438
:100E600000230025002040F66A16B14200D100BFE1
:100E7000C1F3421501F01F03012606FA03F3012D09
:100E800002D19689334006E0022D02D1168A334002
:100E900001E0968A33400C12012606FA04F4168803
:100EA000344013B10CB1012000E0002070BDF0B55A
:100EB0000346002400260025002040F66A17B942A8
:100EC00000D100BF1846C1F3421401F01F060127EC
:100ED00007FA06F5012C01D10C3004E0022C01D1F7
:100EE000103000E014301AB107682F43076002E0A9
:100EF0000768AF430760F0BD2DE9F04786B00546AF
:100F00000E460024A24600BFA1460027B08900B1CA
:100F100000BF2F462C8A4CF6FF700440F088044333
:100F20002C82AC894EF6F3100440B0883189084316
:100F3000718908430443AC81AC8A4FF6FF400440FA
:100F4000B0890443AC8201A8FFF7E8FA1F48874242
:100F500002D1DDF810A001E0DDF80CA0A88900F4B2
:100F6000004040B10AEBCA0000EB0A1031684900AA
:100F7000B0FBF1F807E00AEBCA0000EB0A10316899
:100F80008900B0FBF1F86420B8FBF0F004012009FF
:100F9000642101FB1089A88900F4004040B132208F
:100FA00000EBC900B0FBF1F000F00700044308E0DB
:100FB000322000EB09106421B0FBF1F000F00F00CB
:100FC00004432C8106B0BDE8F087000000380140E2
:100FD00001468888C0F30800704700BFFEE70000A4
:100FE00000B587B0012144F20400FFF777FA4FF40F
:100FF0000070ADF8180003208DF81A0018208DF845
:101000001B0006A91C48FFF767F94FF48060ADF894
:10101000180004208DF81B0006A91748FFF75CF99B
:1010200025208DF8040001208DF805008DF80600BC
:101030008DF8070001A8FFF7F7F94FF47A30029016
:101040000020ADF80C00ADF80E00ADF81000ADF8C2
:1010500014000C20ADF8120002A90848FFF74CFF5D
:10106000012240F225510548FFF721FF01210348E5
:10107000FFF7E7FE07B000BD00080140003801405F
:1010800010B56FF00400FFF729FB10BD014641F2D7
:1010900070724A434FF0E0235A6100229A611A4667
:1010A000126942F001021A6100BF4FF0E02210699C
:1010B00000F001021AB100F48032002AF5D04FF09E
:1010C000E022126922F001024FF0E0231A610022AF
:1010D0009A617047014601EB410252004FF0E02354
:1010E0005A6100229A611A46126942F001021A619D
:1010F00000BF4FF0E022106900F001021AB100F4C5
:101100008032002AF5D04FF0E022126922F001026D
:101110004FF0E0231A6100229A61704772B670475F
:1011200062B670471FB501210220FFF7B7F91748D3
:10113000FFF772FB1D208DF8000003208DF80100E1
:101140008DF8020001208DF803006846FFF76CF966
:1011500040F2F310ADF808004720ADF8040000207D
:10116000ADF80A00ADF8060001A90848FFF762FCD7
:10117000012211460548FFF754FC01210348FFF7FF
:1011800039FB01210148FFF73BFB1FBD0004004074
:10119000FFF776FF9620FFF779FFFFF7BFFF00F01C
:1011A000A3F900F0A5F900F0A8F9FFF7B9FF05E0F1
:1011B00000F096F900F004FA00F09EF9F8E700005C
:1011C0001FB51DA103C9CDE90201002000900190C7
:1011D00000224FF400511A48FFF712F901221103BF
:1011E0001748FFF70DF9002201211548FFF708F90C
:1011F000052202A9302000F0F7F8052269461020E8
:1012000000F020F89DF80000112812D19DF801008F
:1012100022280ED19DF8020033280AD19DF8030040
:10122000442806D19DF80400552802D1002004B0BE
:1012300010BD0120FBE700001122334455000000DF
:10124000000C01402DE9F04107460D4616460022EC
:101250004FF480510C48FFF7D3F8384600F010F9EE
:101260008046002405E0FF2000F00AF92855601CA4
:10127000C4B2B442F7DB012211030348FFF7C0F800
:101280004046BDE8F0810000000C014070B5044606
:1012900000224FF480510848FFF7B2F8204600F0D2
:1012A000EFF8FF2000F0ECF8054601221103024898
:1012B000FFF7A6F8284670BD000C014010B50022CB
:1012C00001211948FFF79CF80A21312000F0B0F8FD
:1012D000FF21E22000F0ACF805221449302000F094
:1012E00083F8052212492A2000F07EF801212120EE
:1012F00000F09EF80121222000F09AF81A21242003
:1013000000F096F80021252000F092F80F21262009
:1013100000F08EF80F21202000F08AF801221146FB
:101320000148FFF76DF810BD000C01401C160008C5
:101330002116000870B50546002201211548FFF767
:101340005FF80A222946A02000F04EF8012211463B
:101350001048FFF755F800BF02210E48FFF747F885
:101360000128F9D00720FFF791FF044621462720E6
:1013700000F05EF804F0100028B1FF21E12000F039
:1013800057F8102070BD04F0200008B12020F9E7C4
:10139000FF20F7E7000C014010B5044600220121B0
:1013A0001048FFF72DF80E21202000F041F801220F
:1013B00011460C48FFF724F80F20FFF78BFE20465C
:1013C000FFF7B8FF002201210648FFF719F80F21A7
:1013D000202000F02DF8012211460248FFF710F8F6
:1013E00010BD0000000C01402DE9F04107460C46FD
:1013F000154600224FF480510C48FFF701F838469B
:1014000000F03EF88046002605E014F8010B00F0DD
:1014100037F8701CC6B2AE42F7DB01221103034855
:10142000FEF7EEFF4046BDE8F0810000000C0140F1
:1014300070B505460C4600224FF480510848FEF76F
:10144000DFFF284600F01CF80646204600F018F89A
:10145000012211030248FEF7D3FF304670BD0000A1
:10146000000C014010B50246002004E0135C034C60
:101470002354431CD8B28842F8DB10BD7C00002006
:1014800070B50446002524E004F08000802805D1D2
:10149000012201021148FEF7B3FF05E000224FF4DC
:1014A00000410E48FEF7ACFF6006040E0122510316
:1014B0000A48FEF7A5FF4FF480410848FEF797FF62
:1014C000044300224FF400510448FEF799FF681CC2
:1014D000C5B2082DD8DB204670BD0000000C0140CD
:1014E00010B5FEF795FF10BD10B5FFF71BFE10BD40
:1014F00010B5FFF775FD10BD704710B500F008F886
:1015000000BFFFF75DFE0028FBD1FFF7D7FE10BD3F
:1015100008B501210820FEF7E1FF10208DF8030037
:101520000002ADF8000003208DF802006946234850
:10153000FEF7D2FE10208DF803004002ADF8000047
:1015400003208DF8020069461C48FEF7C5FE1020F6
:101550008DF80300C002ADF8000003208DF80200F2
:1015600069461648FEF7B8FE0120ADF800001020CD
:101570008DF8030003208DF8020069460F48FEF73E
:10158000ABFE48208DF803004FF48040ADF800001A
:1015900003208DF8020069460848FEF79DFE0220F0
:1015A000ADF8000048208DF8030003208DF80200FC
:1015B00069460248FEF790FE08BD0000000C01409D
:1015C00010B511480079E8B100200F4908710F48A3
:1015D0000F49098801800F490988A0F807100E48B3
:1015E000007A0A4988700C48407AC8700A48807AA4
:1015F00008710948007B48710748407B887108469C
:10160000FFF7CAFE10BD000070000020FE000020A1
:10161000580000205A0000207C000020FFFFFFFF40
:10162000FFFFFFFFFFFF000048160008000000203A
:101630007000000028010008B816000870000020A3
:10164000F8060000440100080000F4F3F2F1FDFC8C
:10165000FBFAF8F7F6F504030201FDFCFBFA0400BF
:10166000A500010004030201FDFCFBFA0400FF00D9
:10167000010004030201000000000000000000005F
:10168000FFFE44556600000000000000000000005E
:10169000000000000000000000000000000000004A
:1016A0005AA40D0E0000000001020304010203040D
:0816B000060708090204060800
:04000005080000ED02
:00000001FF
