:020000040800F2
:1000000038090020C9010008C1070008D10600080E
:10001000BD070008CF0300088B1200080000000095
:100020000000000000000000000000008D09000832
:10003000D30300080000000035080008A10A0008EA
:10004000E3010008E3010008E3010008E301000800
:10005000E3010008E3010008E3010008E3010008F0
:10006000E3010008E3010008E3010008E3010008E0
:10007000E3010008E3010008E3010008E3010008D0
:10008000E3010008E3010008E3010008E3010008C0
:10009000E3010008E3010008E3010008E3010008B0
:1000A000E3010008E3010008E3010008E3010008A0
:1000B000E3010008050B0008E3010008E301000864
:1000C000E3010008E3010008E3010008E301000880
:1000D000E3010008D90E0008E3010008E30100086D
:1000E000E3010008E3010008E301000800F002F862
:1000F00000F05AF80AA090E8000C82448344AAF168
:100100000107DA4501D100F04FF8AFF2090EBAE865
:100110000F0013F0010F18BFFB1A43F0010318473B
:10012000E4320000043300000A444FF0000C10F8E1
:10013000013B13F0070408BF10F8014B1D1108BF65
:1001400010F8015B641E05D010F8016B641E01F805
:10015000016BF9D113F0080F1EBF10F8014BAD1C55
:100160000C1B09D16D1E58BF01F801CBFAD505E073
:1001700014F8016B01F8016B6D1EF9D59142D6D3CD
:10018000704700000023002400250026103A28BFF5
:1001900078C1FBD8520728BF30C148BF0B607047F9
:1001A0001FB51FBD10B510BD00F0D8F81146FFF700
:1001B000F7FF01F0BDFF00F0F6F803B4FFF7F2FF20
:1001C00003BC00F0FDF800000948804709480047DB
:1001D000FEE7FEE7FEE7FEE7FEE7FEE7FEE7FEE7F7
:1001E000FEE7FEE704480549054A064B7047000054
:1001F000A50A0008ED000008380300203809002097
:10020000380500203805002040EA010310B59B079F
:100210000FD1042A0DD310C808C9121F9C42F8D070
:1002200020BA19BA884201D9012010BD4FF0FF3021
:1002300010BD1AB1D30703D0521C07E0002010BD37
:1002400010F8013B11F8014B1B1B07D110F8013BC3
:1002500011F8014B1B1B01D1921EF1D1184610BDA4
:1002600010B5203AC0F00B80B1E81850203AA0E851
:100270001850B1E81850A0E81850BFF4F5AF5FEA85
:10028000027C24BFB1E81850A0E8185044BF18C938
:1002900018C0BDE810405FEA827C24BF51F8043BDF
:1002A00040F8043B08BF7047D20728BF31F8023B33
:1002B00048BF11F8012B28BF20F8023B48BF00F8C7
:1002C000012B70474FF000020429C0F0128010F09B
:1002D000030C00F01B80CCF1040CBCF1020F18BF22
:1002E00000F8012BA8BF20F8022BA1EB0C0100F0B5
:1002F0000DB85FEAC17C24BF00F8012B00F8012B88
:1003000048BF00F8012B70474FF0000200B51346BC
:1003100094469646203922BFA0E80C50A0E80C5025
:10032000B1F12001BFF4F7AF090728BFA0E80C50D6
:1003300048BF0CC05DF804EB890028BF40F8042BCF
:1003400008BF704748BF20F8022B11F0804F18BF3C
:1003500000F8012B7047704770477047754600F0F2
:100360002BF8AE4605006946534620F00700854647
:1003700018B020B5FFF736FFBDE820404FF000066B
:100380004FF000074FF000084FF0000B21F007017D
:10039000AC46ACE8C009ACE8C009ACE8C009ACE8C0
:1003A000C0098D46704710B50446AFF30080204663
:1003B000BDE81040FFF701BF00487047D40200209D
:1003C00001491820ABBEFEE726000200704700BFBF
:1003D000FEE7704730B5044604254FF4302000F0A6
:1003E00085F80546042D17D10C48006940F002003D
:1003F0000A49086108464461006940F0400008610C
:100400004FF4302000F072F805460448006941F6C8
:10041000FD71084001490861284630BD00200240B6
:1004200004200B49C96801F0010109B101200EE067
:100430000749C96801F0040109B1022007E0044935
:10044000C96801F0100109B1032000E004207047E1
:10045000002002400348006940F080000149086123
:10046000704700000020024078B506460C4604257F
:1004700000200090E80200F039F80546042D24D150
:100480001348006940F00100114908613480E80216
:1004900000F02CF80546042D10D1B01C0090200C63
:1004A00000990880E80200F021F805460848006934
:1004B00041F6FE7108400649086106E004480069FB
:1004C00041F6FE71084002490861284678BD0000E7
:1004D00000200240024803494860034848607047D2
:1004E0002301674500200240AB89EFCD00B50246ED
:1004F0000423FFF795FF034603E0FFF791FF034650
:10050000521E012B01D1002AF7D102B9052318464A
:1005100000BD30B503460C460021B2F5803F01D93D
:10052000002030BD002104E01D68601805601B1D1F
:10053000091D9142F8D30846F3E72DE9F047054637
:100540008946164600240427B6F5803F02D90020CC
:10055000BDE8F087FFF7BEFF2846FFF73BFF0746E1
:10056000042F01D03846F3E7002411E009EB040022
:10057000D0F8008041462846FFF776FF07462868F6
:10058000404501D1042F01D0002403E02D1D241D7E
:10059000B442EBD300BFFFF75DFF2046D8E72DE95B
:1005A000F0410246002500260020002300240027F9
:1005B00091F803C00CF00F0591F803C00CF0100C7B
:1005C000BCF1000F03D091F802C04CEA050591F888
:1005D00000C0BCF1000F31D0146800202BE04FF0B8
:1005E000010C0CFA00F3B1F800C00CEA03069E42BD
:1005F00020D183004FF00F0C0CFA03F7BC4305FA2F
:1006000003FC4CEA040491F803C0BCF1280F06D1A6
:100610004FF0010C0CFA00FCC2F814C00AE091F88B
:1006200003C0BCF1480F05D14FF0010C0CFA00FCDF
:10063000C2F810C0401C0828D1D31460B1F800C023
:10064000BCF1FF0F34DD546800202EE000F1080CEF
:100650004FF0010808FA0CF3B1F800C00CEA0306E9
:100660009E4221D183004FF00F0C0CFA03F7BC43DC
:1006700005FA03FC4CEA040491F803C0BCF1280F0E
:1006800005D100F1080C08FA0CF8C2F8148091F8B2
:1006900003C0BCF1480F07D100F1080C4FF001086E
:1006A00008FA0CF8C2F81080401C0828CED3546019
:1006B000BDE8F0810246002093680B400BB1012099
:1006C00000E0002070470AB1016100E0416170471D
:1006D00000BFFEE770B505460C46002018490860CB
:1006E000002617E0E0091649091D08606006040E9F
:1006F000022000F07DFE01201249C1F8980102207D
:1007000000F076FE00200E490860022000F070FE26
:10071000701CC6B2082EE5DB8DB901200849091D01
:10072000086000F065FE01200649C1F8980100F05C
:100730005FFE002002490860012000F059FE70BDF4
:10074000988121420080214210B5012009490860AA
:100750000949C1F89801042000F04AFE002005492B
:100760000860042000F044FE00200349C1F898010D
:1007700010BD00009C8121420080214210B5002064
:10078000084908600849C1F89C01042000F030FEC7
:100790000120044908600449C1F89C01042000F0CC
:1007A00027FE10BD98812142008021424AF6AA20EE
:1007B00001490860704700000030004000BFFEE7BC
:1007C0007047000070B5002100230F22C47804B3E5
:1007D000154C246804F4E064C4F5E064210AC1F116
:1007E0000403CA40447804FA03F184781440214396
:1007F00009010E4C0678A155047804F01F05012468
:10080000AC4005786D11AD0005F1E025C5F800415B
:1008100009E0047804F01F050124AC40044D06787B
:10082000761145F8264070BD0CED00E000E400E0D4
:1008300080E100E07047000029B1064AD269024316
:10084000044BDA6104E0034AD2698243014BDA6166
:10085000704700000010024029B1064A12690243A5
:10086000044B1A6104E0034A12698243014B1A6186
:10087000704700000010024029B1064A9269024305
:10088000044B9A6104E0034A92698243014B9A61E6
:10089000704700000010024029B1064AD2680243A6
:1008A000044BDA6004E0034AD2688243014BDA6009
:1008B000704700000010024030B5002100220024E3
:1008C00000232D4D6D6805F00C0121B1042905D0E0
:1008D000082923D105E0294D056022E0274D056058
:1008E0001FE0254D6D6805F47012234D6D6805F409
:1008F0008034022505EB92421CB9214D5543056019
:100900000BE01D4D6D6805F400351DB11C4D5543C0
:10091000056002E0194D5543056002E0174D056082
:1009200000BF00BF144D6D6805F0F0010909154DB9
:100930006B5C0568DD4045600F4D6D6805F4E06156
:10094000090A104D6B5C4568DD4085600A4D6D6895
:1009500005F46051C90A0B4D6B5C4568DD40C5600C
:10096000054D6D6805F44041890B074D6B5CC5680A
:10097000B5FBF3F5056130BD0010024000127A00AE
:1009800000093D001902002029020020704710B51F
:1009900000F002F810BD00000CB50020019000909E
:1009A0003348006840F480303149086000BF304867
:1009B000006800F4003000900198401C01900098FD
:1009C00018B90198B0F5A06FF1D12948006800F47A
:1009D000003010B10120009001E00020009000984C
:1009E000012843D12348006840F0100021490860E5
:1009F0000846006820F0030008600846006840F0E0
:100A0000020008601A484068194948600846406872
:100A100048600846406840F4806048600846406886
:100A200020F47C1048600846406840F4E8104860B4
:100A30000846006840F08070086000BF0C480068FD
:100A400000F000700028F9D00948406820F0030049
:100A5000074948600846406840F00200486000BF0F
:100A60000348406800F00C000828F9D10CBD0000D4
:100A70000010024000200240042808D14FF0E0217D
:100A8000096941F004014FF0E022116107E04FF0E5
:100A9000E021096921F004014FF0E0221161704763
:100AA0007047000010B51348006840F0010011497C
:100AB000086008464068104908400E4948600846EA
:100AC00000680E4908400B4908600846006820F499
:100AD000802008600846406820F4FE0048604FF41B
:100AE0001F008860FFF753FF4FF000600449086063
:100AF00010BD0000001002400000FFF8FFFFF6FEEE
:100B000008ED00E010B50121354800F079F9002822
:100B100065D00121324800F070F801203149087099
:100B20000846C088401CC8800846C088022856DB9A
:100B30000020C8800120487008460089401C0881B8
:100B40000846C08A401CC8820846C08AB0F57A7F31
:100B50000CD10020C88201200875002022490870AD
:100B60002249087032212248FFF7ACFB1D4800895A
:100B7000022834DB00201B49088101204871084607
:100B8000008A401C08820846008A052827DB0020CE
:100B900008820120887008464089401C4881084628
:100BA00040890A281BDB0020488101200871084683
:100BB000C089401CC8810846C08905280FDB002079
:100BC000C8810120C8700846807C401C8874084693
:100BD000807C0A2803DB002088740120C87410BDC3
:100BE0000004004030020020ED010020EC01002054
:100BF00084020020CA4302827047CA4302827047BF
:100C000021B1028842F00102028004E002884FF61E
:100C1000FE731A400280704710B50446684884424B
:100C200008D10121C014FFF737FE0021E014FFF7BF
:100C300033FEC4E0B4F1804F08D101210846FFF72C
:100C40000BFE00210120FFF707FEB8E05D4884425B
:100C500008D101210220FFF7FFFD00210220FFF74C
:100C6000FBFDACE05848844208D101210420FFF785
:100C7000F3FD00210420FFF7EFFDA0E0534884427C
:100C800008D101210820FFF7E7FD00210820FFF728
:100C9000E3FD94E04E48844208D101211020FFF783
:100CA000DBFD00211020FFF7D7FD88E04948844292
:100CB00008D101212020FFF7CFFD00212020FFF7E0
:100CC000CBFD7CE04448844208D101214014FFF769
:100CD000E3FD00216014FFF7DFFD70E03F48844230
:100CE00009D10121C804FFF7D7FD00214FF40020EE
:100CF000FFF7D2FD63E03A48844209D1012108059B
:100D0000FFF7CAFD00214FF48010FFF7C5FD56E044
:100D10003448844209D101214805FFF7BDFD002177
:100D20004FF40010FFF7B8FD49E02F48844208D186
:100D300001214020FFF790FD00214020FFF78CFDAE
:100D40003DE02A48844208D101218020FFF784FD3C
:100D500000218020FFF780FD31E02548844208D142
:100D600001218015FFF778FD0021A015FFF774FD24
:100D700025E02048844209D101210804FFF78CFDB9
:100D800000214FF48030FFF787FD18E01A488442B5
:100D900009D101214804FFF77FFD00214FF4003005
:100DA000FFF77AFD0BE01548844208D10121880441
:100DB000FFF772FD00214FF48020FFF76DFD10BD9D
:100DC000002C01400004004000080040000C0040DE
:100DD000001000400014004000340140004C01406D
:100DE000005001400054014000180040001C004029
:100DF0000020004000400140004401400048014004
:100E000030B50246002000230024158A05EA0103BC
:100E1000958905EA010413B10CB1012000E000201E
:100E200030BD1AB183890B43838102E083898B43F0
:100E300083817047002202881D4B98420ED01D4BC3
:100E400098420BD0B0F1804F08D01B4B984205D090
:100E50001A4B984202D01A4B984204D14FF68F7326
:100E60001A404B881A43174B984207D0164B9842AA
:100E700004D04FF6FF431A40CB881A4302808B8878
:100E800083850B8803850A4B98420BD0094B984207
:100E900008D00E4B984205D00D4B984202D00D4B16
:100EA000984201D10B7A03860123838270470000A8
:100EB000002C0140003401400004004000080040C4
:100EC000000C0040001000400014004000400140B1
:100ED000004401400048014010B5002440F2255173
:100EE000754800F012F9002878D0734800F0C8F96E
:100EF000C4B240F22551704800F0ECF86F48007819
:100F000006286CD2DFE800F00322345181ACAA2C11
:100F10000FD101206949087069486A490978445429
:100F200068480078401C6749087000206649C882FC
:100F30000BE0002061490870624908703221604866
:100F4000FFF7C0F900206049C882B2E002205B4987
:100F500008705B485B49097844545C480470594800
:100F60000078401C5749087000205749C882A0E00B
:100F7000012C01D0022C0BD103205049087051489C
:100F80000078401C4F49087000204F49C8820BE090
:100F900000204A4908704B49087032214848FFF741
:100FA00091F900204849C88200BF48480078401E97
:100FB00047490978884213D10420404908704048C5
:100FC0004049097844543F480078401C3D49087026
:100FD00000203D49C8823E49087015E06AE067E09C
:100FE0000320364908703648364909784454354854
:100FF0000078401C3349087000203349C8823448C7
:101000000078401C3249087053E0314800780128CC
:1010100011D105202949087029482A4909784454E2
:1010200028480078401C2749087000202649C882BB
:101030002749087013E004202049087020482149FE
:10104000097844541F480078401C1E49087000204D
:101050001D49C8821E480078401C1D49087028E0C0
:10106000552C1BD100201549087016480078401CEB
:101070001449087012480978445400201249C88263
:101080001049087011480078C01DC1B20C4801F029
:1010900083FA32210A48FFF715F908E000200749D2
:1010A00008700849087032210548FFF70BF900E085
:1010B00000BF00BF10BD000000380140EC0100205F
:1010C00084020020ED01002030020020F401002005
:1010D000F301002010B50022002340F66A14A1425B
:1010E00000D100BF0A1201249440A3B2DC43048063
:1010F00010BD21B1828942F40052828104E08289CC
:101100004DF6FF731A408281704770B50246002485
:1011100000230025002040F66A16B14200D100BF2E
:10112000C1F3421501F01F03012606FA03F3012D56
:1011300002D19689334006E0022D02D1168A33404F
:1011400001E0968A33400C12012606FA04F4168850
:10115000344013B10CB1012000E0002070BDF0B5A7
:101160000346002400260025002040F66A17B942F5
:1011700000D100BF1846C1F3421401F01F06012739
:1011800007FA06F5012C01D10C3004E0022C01D144
:10119000103000E014301AB107682F43076002E0F6
:1011A0000768AF430760F0BD2DE9F04786B00546FC
:1011B0000E460024A24600BFA1460027B08900B118
:1011C00000BF2F462C8A4CF6FF700440F088044381
:1011D0002C82AC894EF6F3100440B0883189084364
:1011E000718908430443AC81AC8A4FF6FF40044048
:1011F000B0890443AC8201A8FFF75EFB1F48874219
:1012000002D1DDF810A001E0DDF80CA0A88900F4FF
:10121000004040B10AEBCA0000EB0A1031684900F7
:10122000B0FBF1F807E00AEBCA0000EB0A103168E6
:101230008900B0FBF1F86420B8FBF0F0040120094C
:10124000642101FB1089A88900F4004040B13220DC
:1012500000EBC900B0FBF1F000F00700044308E028
:10126000322000EB09106421B0FBF1F000F00F0018
:1012700004432C8106B0BDE8F0870000003801402F
:1012800001468888C0F30800704700BFFEE70000F1
:1012900000B587B0012144F20400FFF7EDFA4FF4E6
:1012A0000070ADF8180003208DF81A0018208DF892
:1012B0001B0006A91D48FFF772F94FF48060ADF8D6
:1012C000180004208DF81B0006A91848FFF767F9DD
:1012D00025208DF8040000208DF8050001208DF8F0
:1012E00006008DF8070001A8FFF76CFA4FF4E13013
:1012F00002900020ADF80C00ADF80E00ADF8100023
:10130000ADF814000C20ADF8120002A90848FFF750
:101310004BFF012240F225510548FFF720FF012134
:101320000348FFF7E6FE07B000BD000000080140DB
:10133000003801402DE9F043ADF5017D07468846B0
:1013400091461E464FF4007101A8FEF7DDFF002410
:101350000CE0002506E0002005EBC40101AA505472
:10136000681C85B2082DF6DB601C84B2B442F0DB49
:10137000334601AA4146384600F0C4F80DF5017D18
:10138000BDE8F08310B50446102141EA241001F0B5
:1013900059F804F00F0001F055F810BD10B56FF0CA
:1013A0000400FFF769FB10BD014641F270724A4329
:1013B0004FF0E0235A6100229A611A46126942F006
:1013C00001021A6100BF4FF0E022106900F0010233
:1013D0001AB100F48032002AF5D04FF0E0221269F1
:1013E00022F001024FF0E0231A6100229A61704757
:1013F000014601EB410252004FF0E0235A61002206
:101400009A611A46126942F001021A6100BF4FF058
:10141000E022106900F001021AB100F48032002AC3
:10142000F5D04FF0E022126922F001024FF0E023E4
:101430001A6100229A61704772B6704710B50C4865
:1014400000780C490978884201D000F0BDFF0948B6
:10145000007807490870062307A20221032000F044
:10146000D3F9012308A20E21032000F00FF810BDCC
:101470001600002002000020C8B7C8CFBBD6B8B401
:10148000C4ACC8CF000000003F0000002DE9F047C9
:10149000ADF5007D81468A46174698464FF40071A7
:1014A0006846FEF731FF00251CE0002416E0134AD1
:1014B000111978190122FEF7A7FE68B9002609E084
:1014C00006EB04100E49085C06EB05110DF801004F
:1014D000701C86B2102EF3DB601C84B2642CE6D341
:1014E000681C85B24545E0DB43466A46514648469E
:1014F00000F008F80DF5007DBDE8F0871E28000813
:10150000822800082DE9F04704460D461646994604
:101510004FF0000822E0274619E0384600F0D0FFDF
:101520004FEAC80101EBC501C8B2FFF72BFF4FF02E
:10153000000A07E016F8010B00F097FF0AF101001E
:1015400000F0FF0ABAF1080FF4DB781CC7B2A01C48
:101550008742E2DB08F1010000F0FF08C845DADB52
:10156000BDE8F0872DE9F04190B040216846FEF7D4
:10157000CBFE3D4800783D490978884201D000F013
:1015800023FF3A48007838490870002420E0DFF84B
:10159000E08008EB041898F80830DFF8D48008EBF6
:1015A0000418D8F80420DFF8C88008EB041898F86D
:1015B0000110DFF8BC8008EB041898F80000DFF891
:1015C000B08008EB0418D8F80CC0E047601CC4B227
:1015D000032CDCD327488578DFF89C8008EB0518BE
:1015E00098F80830DFF8908008EB0518D8F8042048
:1015F000DFF8848008EB051898F80110DFF8788090
:1016000008EB051898F80000DFF86C8008EB051867
:10161000D8F80CC0E0470324032620E01548015DFC
:101620000246601C105C41EA00201E2808DB1046C0
:10163000015D601C105C41EA00201E3887B200E0AA
:1016400000276946384601F00FF804236A4609214D
:101650003046FFF757FFA01CC4B2F01CC6B2062CE0
:10166000DCDB10B0BDE8F081160000200200002095
:1016700038000020B6020020F800002070B590B0BD
:1016800040216846FEF740FE44480078092803DB05
:10169000424800780A2801DD00F096FE40480078B4
:1016A0003E49087000240EE03D480078093800EB00
:1016B0004000A04205D00123002211462046FFF73A
:1016C00039FEE01CC4B2052CEED33549097809393E
:1016D00001EB4101C8B2012332A20021FFF7D6FE7F
:1016E000002416E0304E06EB0416337A2E4E06EB3D
:1016F000041672682C4E06EB041671782A4E06EB1F
:1017000004163078284E06EB0416F568A847601CCE
:10171000C4B2022CE6D32548007830B320480078C4
:10172000092802D00A281BD10BE021480078401C70
:101730001F49087008460078FF2801DB0020087068
:101740000FE01C480088401C1A49088008460088A1
:1017500040F2E731884202DB00201649088000E0B1
:1017600000BF00BF0020114908706946104800788A
:1017700000F07AFF04236A460A210020FFF7C2FE28
:1017800069460C48008800F06FFF04236A460A216E
:101790000320FFF7B7FE10B070BD00001600002058
:1017A000020000203E000000D800002004000020BD
:1017B000130000201400002010B50C4800780C49DC
:1017C0000978884201D000F0FFFD094800780749F8
:1017D0000870062307A20221032000F015F8012358
:1017E00008A20E210320FFF751FE10BD16000020B5
:1017F00002000020C8B7B6A8B8FCB8C4B2CECAFD73
:10180000000000003F0000002DE9F047ADF5007D2D
:1018100081468A46174698464FF400716846FEF79F
:1018200073FD00251EE0002418E0144A02EB440179
:1018300007EB45000222FEF7E7FC68B9002609E045
:1018400006EB44100E49085C06EB45110DF801004B
:10185000701C86B2202EF3DB601C84B2642CE4D3AF
:10186000681C85B24545DEDB43466A46514648461C
:1018700000F080F90DF5007DBDE8F087A22C00088E
:10188000062D000870B590B040216846FEF73CFD7B
:101890004F480078062803DB4D480078082801DD12
:1018A00000F092FD4B4800784949087000240EE092
:1018B00048480078801F00EB4000A04205D001237B
:1018C000002211462046FFF735FDE01CC4B2072C6C
:1018D000EED340490978891F01EB4101C8B20123C9
:1018E0003DA20021FFF7D2FD002416E03B4E06EB9F
:1018F0000416337A394E06EB04167268374E06EB3F
:1019000004167178354E06EB04163078334E06EB2C
:101910000416F568A847601CC4B2032CE6D330480F
:10192000007888B32B480078062804D007280ED00A
:10193000082824D117E02B480078401C294908705A
:1019400008460078C82801DB0020087018E0264807
:101950000078401C2449087008460078642801DBA0
:10196000002008700CE021480078401C1F490870D6
:1019700008460078C82801DB0020087000E000BF9E
:1019800000BF00201649087069461648007800F02C
:101990006BFE04236A460A210020FFF7B3FD694667
:1019A0001148007800F060FE04236A460A210320F3
:1019B000FFF7A8FD69460D48007800F055FE0423A6
:1019C0006A460A210620FFF79DFD10B070BD000099
:1019D00016000020020000203E000000A8000020A9
:1019E0000400002010000020110000201200002040
:1019F0002DE9F0472E48007800EB40002D4901EB1F
:101A0000800007792A48007800EB400001EB800055
:101A100090F80580022F02D10326274D03E0052F01
:101A200001D10126254D26480078B84203DB244821
:101A30000078404501DD00F0C7FC1D4800782049D2
:101A40000870002407E00123002211462046FFF71A
:101A500071FCE01CC4B2012000EB4600A042F2DCA5
:101A600013490978C91B01EB4101C8B2012315A232
:101A70000021FFF70BFD002416E005EB041999F88F
:101A8000083005EB0419D9F8042005EB041999F87E
:101A9000011005EB041999F8000005EB0419D9F8B9
:101AA0000CC0E047601CC4B2B442E6DBBDE8F0877E
:101AB000020000203801002068000020980000206B
:101AC000160000203E00000010B50C4800780C49BC
:101AD0000978884201D000F077FC0948007807496E
:101AE0000870032307A202211846FFF78DFE052385
:101AF00006A208210320FFF7C9FC10BD1600002034
:101B000002000020B0E6B1BEBAC500003A56312E40
:101B10003000000070B514480078144909788842F4
:101B200001D000F051FC114800780F4908700024E2
:101B300016E00F4E06EB0416337A0D4E06EB041634
:101B400072680B4E06EB04167178094E06EB04160C
:101B50003078074E06EB0416F568A847601CC4B23F
:101B6000022CE6D370BD0000160000200200002009
:101B7000180000202DE9F04704460D461646994608
:101B80004FF0000822E0274619E0384600F098FCA4
:101B90004FEA081101EBC501C8B2FFF7F3FB4FF0A4
:101BA000000A07E016F8010B00F05FFC0AF10100E3
:101BB00000F0FF0ABAF1100FF4DB781CC7B2A01CCA
:101BC0008742E2DB08F1010000F0FF08C845DADBDC
:101BD000BDE8F08762B6704708B501210820FEF71E
:101BE0004BFE4020ADF8000014208DF803000320C8
:101BF0008DF8020069460B48FEF7D1FC8020ADF855
:101C0000000014208DF8030003208DF802006946BF
:101C10000448FEF7C4FC0120034908600349C1F8E9
:101C20009C0108BD000C01409881214200802142A6
:101C300008B501210420FEF71FFE0420ADF80000C6
:101C400048208DF8030069461A48FEF7A8FC0820D2
:101C5000ADF8000048208DF8030069461548FEF7EE
:101C60009EFC1020ADF8000048208DF80300694666
:101C70001048FEF794FC2020ADF8000048208DF8B5
:101C8000030069460B48FEF78AFC0220ADF800000D
:101C900048208DF8030069460748FEF780FC0120C4
:101CA000ADF8000048208DF8030069460248FEF7B1
:101CB00076FC08BD00080140000C01401FB5012161
:101CC0000220FEF7B9FD1748FEF7A6FF1D208DF88C
:101CD000000003208DF801008DF8020001208DF82E
:101CE00003006846FEF76EFD40F2F310ADF8080001
:101CF0004720ADF804000020ADF80A00ADF806005A
:101D000001A90848FFF796F8012211460548FFF798
:101D100088F801210348FEF76DFF01210148FEF715
:101D20006FFF1FBD0004004010B5FFF781FF10BD1D
:101D300070B500245D48007820B1012838D0022811
:101D40007ED191E004215A48FEF7B4FC70B108211D
:101D50005748FEF7AFFC48B110215548FEF7AAFCE2
:101D600020B120215248FEF7A5FCD8B901204F49E7
:101D7000087004214E48FEF79DFC054608214C489A
:101D8000FEF798FC45EA400510214948FEF792FC11
:101D900045EA800520214648FEF78CFC45EAC00054
:101DA000444908700020444908704449087078E0AC
:101DB00004213F48FEF77EFC70B108213C48FEF745
:101DC00079FC48B110213A48FEF774FC20B120217B
:101DD0003748FEF76FFCA0BB04213548FEF76AFCCC
:101DE000054608213248FEF765FC45EA400510210A
:101DF0002F48FEF75FFC45EA800520212C48FEF7BE
:101E000059FC45EAC000C4B22A48007884422AD16D
:101E10002A48007810B9012028490870264800781F
:101E2000401C254908700846007864281BDD022004
:101E3000234908700020204908702049087001E0FB
:101E40002EE003E00220194908700CE01B480078DE
:101E500030B101201A49087002201449087002E0CC
:101E60000020124908701CE004211148FEF722FCF2
:101E700070B108210E48FEF71DFC48B110210C4836
:101E8000FEF718FC20B120210948FEF713FC18B911
:101E90000B480078022802D100200449087000E0B5
:101EA00000BF00BF0348007870BD000000000020A4
:101EB000000801400A00002008000020090000205E
:101EC000010000203EB50024002000900190029007
:101ED0008948807800287DD0002087498870FFF7E6
:101EE00027FF044685480078002874D1844800788C
:101EF000012871D1002080498874AF2000F0A2FA37
:101F0000012080490870072C67D00B2C66D00D2C5F
:101F100065D00E2C7DD17C4800780E2823D10A2272
:101F200069467A48FEF7F5FA6420794908708DF819
:101F300002003220774908708DF80300642076494A
:101F400008708DF80400EF20744908708DF80500C2
:101F50001E20734908808DF806000A2269466B48E6
:101F6000FEF7EBFA4AE0684800780C2816D10A22FE
:101F700069466648FEF7CDFA654800788DF802009C
:101F8000644800788DF80300634800788DF80400F9
:101F90000A2269465D48FEF7D0FA2FE05A480078D9
:101FA0000D282BD10A2269465848FEF7B2FA5B4841
:101FB00000788DF805005A4800788DF806000A224E
:101FC00069465248FEF7B9FA812000F03BFA5348BF
:101FD000007805E08EE086E081E045E025E019E04C
:101FE00000F030FA4E48008800EBC00101EB001011
:101FF0004FF6FF7101EA80004A49088042480078A4
:1020000000EB4000484901EB8000C0783E49087071
:1020100064E062E03C48007800EB4000424901EB9C
:10202000800040783849087058E037480078062822
:1020300003DB35480078082807DD33480078092895
:1020400007DB314800780A2803DC01203749087093
:1020500009E02D48007800EB4000334901EB800097
:1020600080782949087039E0274800780C2817D073
:1020700025480078062813D02348007807280FD079
:102080002148007808280BD01F4800780D2807D079
:102090001D480078092803D01B4800780A2818D169
:1020A0000A2269461948FEF734FA9DF802001849D9
:1020B00008709DF80300174908709DF80400164940
:1020C00008709DF80500154908709DF80600144930
:1020D000088001200C49087000E000BF00BF00200C
:1020E0000749087006E006480078022802D100205F
:1020F000034908703EBD00003002002000000020AF
:1021000001000020030000200200002000FC000865
:1021100010000020110000201200002013000020F9
:1021200014000020060000203801002004000020D8
:10213000FFF734F99620FFF737F9FFF77DF900F044
:102140008BFA00F059F900F08BFA00F0D1FAFFF7A2
:10215000EBFD00F0BDF9FFF73DFD07E000F05AFA96
:1021600000F02AFBFFF7AEFE00F092F9F6E7000060
:102170001FB51EA103C9CDE9020100200090019006
:10218000002400224FF400511A48FEF79CFA012265
:1021900011031848FEF797FA002201211548FEF7AF
:1021A00092FA052202A9302000F0D0F805226946F3
:1021B000102000F053F89DF8000011280FD19DF871
:1021C000010022280BD19DF80200332807D19DF889
:1021D0000300442803D19DF80400552801D00120B4
:1021E00000E000200446204604B010BD1122334414
:1021F00055000000000C014070B50446072000F0B7
:1022000051F805462946272000F0C4F805F04000A3
:10221000B8B1012211460C48FEF755FA0A222146B0
:10222000612000F01BF8FF21E22000F0B3F801224A
:1022300011460548FEF747FA9620FFF7D9F8002027
:1022400070BD0120FCE70000000C014010B5022128
:102250000148FEF72FFA10BD000C01402DE9F041B6
:1022600007460D46164600224FF480510C48FEF7F3
:102270002AFA384600F09EF98046002405E0FF2047
:1022800000F098F92855601CC4B2B442F7DB012273
:1022900011030348FEF717FA4046BDE8F08100003D
:1022A000000C014070B5044600224FF480510848EC
:1022B000FEF709FA204600F07DF9FF2000F07AF9D8
:1022C0000546012211030248FEF7FDF9284670BDBC
:1022D000000C014010B5002201211948FEF7F3F966
:1022E0000A21312000F056F8FF21E22000F052F8D8
:1022F00005221449302000F029F8052212492A202D
:1023000000F024F80121212000F044F801212220CE
:1023100000F040F81A21242000F03CF8002125208C
:1023200000F038F80F21262000F034F80F2120208B
:1023300000F030F8012211460148FEF7C4F910BD43
:10234000000C014014280008192800082DE9F0416C
:1023500007460C46154600224FF480510C48FEF704
:10236000B2F9384600F026F98046002605E014F858
:10237000010B00F01FF9701CC6B2AE42F7DB012260
:1023800011030348FEF79FF94046BDE8F0810000C5
:10239000000C014070B505460C4600224FF48051F8
:1023A0000848FEF790F9284600F004F90646204652
:1023B00000F000F9012211030248FEF784F93046CB
:1023C00070BD0000000C014070B5002410E02046F4
:1023D00000F076F80020FEF7D5FF002504E000208D
:1023E00000F043F8681CC5B2802DF8DB601CC4B255
:1023F000082CECDB70BD000010B588B01C220AA1CF
:1024000001A8FDF72DFFFFF7E7FB002405E001A978
:10241000085D00F017F8601CC4B2192CF7DBFFF759
:10242000D3FF08B010BD0000AED580A83FD3004058
:102430008D142002A1C8DA1281EFD9F1DB30A4A6F5
:10244000AF00000010B50446FEF77EF978210020A9
:10245000FEF740F900210846FEF73CF9214600202E
:10246000FEF738F9FEF78AF910BD10B50446FEF7FD
:102470006BF978210020FEF72DF940210020FEF7AE
:1024800029F921460020FEF725F9FEF777F910BD5E
:1024900010B50848007858B1002006490870064970
:1024A000097801EB4101054A02EB81018868804708
:1024B00010BD0000030000200200002038010020B1
:1024C00010B5044604F1B001C8B2FFF7BBFF10BD60
:1024D0000EB5012027490870002027490870012007
:1024E000264908700A2269462548FEF712F89DF829
:1024F0000000552803D19DF80100A82824D05520BC
:102500008DF80000A8208DF8010064201D49087096
:102510008DF8020032201C4908708DF803006420F9
:102520001A4908708DF80400EF20194908708DF8D9
:1025300005001E20174908808DF806000A2269460A
:102540000F48FDF7FAFF13E09DF802000D490870EF
:102550009DF803000C4908709DF804000B490870B1
:102560009DF805000A4908709DF806000949088091
:102570000EBD00000D00002002000020030000201E
:1025800000FC0008100000201100002012000020B4
:10259000130000201400002010B50246002004E0C3
:1025A000135C034C2354431CD8B28842F8DB10BDA3
:1025B0005202002070B50446002524E004F080009B
:1025C000802805D1012201021148FEF77CF805E0C0
:1025D00000224FF400410E48FEF775F80122510326
:1025E0000B48FEF770F86006040E4FF4804108486F
:1025F000FEF760F8044300224FF400510448FEF750
:1026000062F8681CC5B2082DD8DB204670BD0000FA
:10261000000C014010B5FEF7C9F80C48007818B15D
:102620000A480078012802D1002009498874084826
:10263000C07C48B100200649C874012005490870D3
:1026400002490870FFF7C0FE10BD00000200002024
:10265000300200200300002010B5FFF72FFB10BD53
:1026600010B5FEF715FE10BD78B50C460025009597
:102670000022024642F2107592FBF5F5EDB28DF89C
:1026800000504FF47A7592FBF5F605FB162564268B
:1026900095FBF6F5EDB28DF80150642592FBF5F649
:1026A00005FB16250A2695FBF6F5EDB28DF80250CE
:1026B0000A2592FBF5F605FB1625EDB28DF80350C1
:1026C000002110E000230AE01DF8015003EB05157E
:1026D000064E755D03EB0116A5555D1CEBB2102B84
:1026E000F2DB4D1CE9B20429ECDB78BD822800083E
:1026F00010B500F009F800BFFFF73AFD0028FBD144
:10270000FFF7E8FD10BD000008B501210820FEF725
:10271000B3F810208DF803000002ADF8000003208C
:102720008DF8020069462348FDF739FF10208DF827
:1027300003004002ADF8000003208DF80200694656
:102740001C48FDF72CFF10208DF80300C002ADF8E7
:10275000000003208DF8020069461648FDF71FFFB0
:102760000120ADF8000010208DF8030003208DF843
:10277000020069460F48FDF712FF48208DF803005C
:102780004FF48040ADF8000003208DF80200694648
:102790000848FDF704FF0220ADF8000048208DF83E
:1027A000030003208DF8020069460248FDF7F7FE9A
:1027B00008BD0000000C014010B51048C078D8B129
:1027C00000200E49C870FFF741FDA8B90C48FFF77B
:1027D00013FD02220B490A48FDF716FD60B90222DB
:1027E00009490748C01DFDF70FFD28B907480078C3
:1027F000012801D10649087010BD000030020020F8
:10280000B60200201502002017020020020000205E
:1028100003000020FFFFFFFFFFFFFFFFFFFF30313E
:1028200032333435363738396162636465666768D8
:10283000696A6B6C6D6E6F70717273747576777890
:10284000797A4142434445464748494A4B4C4D4EAC
:102850004F505152535455565758595A3E2E3A3F9D
:102860000000000000000000000000000000000068
:102870000000000000000000000000000000000058
:10288000000000E010080810E000000F10202010E9
:102890000F00001010F8000000000020203F202052
:1028A00000000070080808887000003028242221E9
:1028B000300000300888884830000018202020119F
:1028C0000E000000C02010F8000000070424243F80
:1028D000240000F808888808080000192120201129
:1028E0000E0000E0108888180000000F1120201151
:1028F0000E0000380808C83808000000003F00003B
:1029000000000070880808887000001C2221212225
:102910001C0000E010080810E00000003122221125
:102920000F000000808080800000001924222222F5
:102930003F2008F8008080000000003F1120201197
:102940000E000000008080800000000E112020207A
:102950001100000000808088F800000E1120201077
:102960003F200000808080800000001F2222222261
:102970001300008080F0888888180020203F2020E5
:1029800000000000808080808000006B949494930D
:10299000600008F8008080800000203F21000020B7
:1029A0003F2000809898000000000020203F202059
:1029B0000000000000809898000000C08080807FA8
:1029C000000008F8000080808000203F24022D30A5
:1029D0002000000808F8000000000020203F202010
:1029E00000008080808080808000203F20003F2089
:1029F000003F8080008080800000203F2100002078
:102A00003F200000808080800000001F20202020C8
:102A10001F00808000808000000080FFA120201126
:102A20000E000000008080808000000E112020A099
:102A3000FF80808080008080800020203F21200057
:102A40000100000080808080800000332424242442
:102A50001900008080E0808000000000001F20201E
:102A600000008080000000808000001F20202010D7
:102A70003F20808080000080808000010E300806AA
:102A8000010080800080008080800F300C030C30BB
:102A90000F0000808000808080000020312E0E31E9
:102AA0002000808080000080808080818E701806E9
:102AB000010000808080808080000021302C222155
:102AC00030000000C038E0000000203C2302022754
:102AD000382008F8888888700000203F20202011C6
:102AE0000E00C03008080808380007182020201001
:102AF000080008F808080810E000203F20202010F7
:102B00000F0008F88888E8081000203F20202320C4
:102B1000180008F88888E8081000203F200003000B
:102B20000000C03008080838000007182020221EC6
:102B3000020008F808000008F808203F21010121E0
:102B40003F20000808F8080800000020203F20204F
:102B5000000000000808F8080800C08080807F009E
:102B6000000008F888C028180800203F20012638F7
:102B7000200008F8080000000000203F202020204E
:102B8000300008F8F800F8F80800203F003F003F48
:102B9000200008F830C00008F808203F200007187F
:102BA0003F00E01008080810E0000F10202020105F
:102BB0000F0008F808080808F000203F2101010173
:102BC0000000E01008080810E0000F182424385016
:102BD0004F0008F8888888887000203F2000030C88
:102BE0003020007088080808380000382021212291
:102BF0001C00180808F8080818000000203F2000F2
:102C0000000008F808000008F808001F2020202015
:102C10001F000878880000C83808000007380E0137
:102C20000000F80800F80008F800033C0700073C23
:102C30000300081868808068180820302C03032CD3
:102C400030200838C800C83808000000203F2000A5
:102C5000000010080808C838080020382621202065
:102C60001800000810204080000000201008040216
:102C700001000000000000000000003030000000F3
:102C80000000000000C0C000000000000030300064
:102C90000000007048080808F0000000003036010D
:102CA0000000D7B4CCACD3D0C8CBBEE0C0EBCEDEF6
:102CB000C4BFB1EAD4CBB6AFBEB2D6B9B2BBC8B707
:102CC000B6A8BBB6D3ADCAB9D3C3C7EBB0B4C8CFEF
:102CD000BCFCC9E8D6C3B7A2C9E4B9A6C2CAC1E957
:102CE000C3F4B6C8C3BBB0E6B1BEB2CECAFDBBD654
:102CF000B8B4C4ACBAC5B8FCB8C4C6C1C4BBCFA2D2
:102D0000C1C1CAB1BCE400083000FF20202020FF70
:102D10002020222C200004040201FF8040300E01FC
:102D2000061820408000000484844424548F142416
:102D3000448484040000413900003C4040424C403F
:102D400040700409310004040484E43C2724242452
:102D500024E40404040004020100FF0909090949EC
:102D6000897F00000000000000000000C03FC0009C
:102D7000000000000000804020100C030000000351
:102D80000C1020408000003E22E2223E00FE222263
:102D9000222222E20200203F201F1111007F444422
:102DA000444444474000040404F484D4A5A6A4D4B5
:102DB00084F40404040000FE0202123A1613121AEC
:102DC0003242827E00000040424242C27E42C24203
:102DD000424240400000804020100C0300003F4071
:102DE0004040407000000000FE22222222222222C7
:102DF0002222FE0000000000FF42424242424242C4
:102E00004242FF0000001010D0FF9010202222222A
:102E1000E22222222000040300FF00130C03408062
:102E20007F0001061800404042CC00202222A2620E
:102E30002222222000000040201F20444E4544440E
:102E40004445464C40004044C4444444401010FFB4
:102E5000101010F00000103C131014B840300E0198
:102E60004080403F00004454547F5454442028275D
:102E7000E4342CE0000000FF1555957F00094989D6
:102E80007F09091F0100000000F0000000FF404022
:102E90004040400000004040407F4040407F404074
:102EA00040404040400000020202028242F20E42D4
:102EB00082020202000010080402010000FF00006C
:102EC0000001020C00000484E45C44C42010E827E4
:102ED00024E4342CE00002017F10103F80601F09C1
:102EE000093F49897F00100C4444444445C644448A
:102EF000444444140C008040201E2040407F444441
:102F000044444440400004244484649C40300FC83E
:102F100008082818000010080601824C2018060135
:102F2000061820408000404042CC0000FC04020013
:102F3000FC0404FC00000040201F20404F4442409D
:102F40007F42444340008060F80704E4242424FFC7
:102F5000242424E404000000FF0080814529112F6F
:102F60004141818180000000FE22222222FE222295
:102F70002222FE00000080601F020202027F020285
:102F800042827F0000004042CC0000445454547FF1
:102F900054545444400000007F201000FF151515C4
:102FA00055957F000000101010FF9020988888E948
:102FB0008E8888A898000242817F000080844B2878
:102FC000102847800000404042CC0000000000FF75
:102FD0000000000000000000003F9048201807009B
:102FE0000718204080004030EF242480E49C1054D7
:102FF00054FF547C100001017F21512618274445BD
:10300000455F45454400404042CC0040A09E82823E
:10301000829EA02020000000003F908840432C109A
:10302000284641808000001715D55557557D5557C6
:1030300055D5151700004040407F555555555555FD
:10304000557F404040000000181610D0B89790906F
:103050009092941000000020108C8380414628102C
:103060002844438080000000FC565554FC0010109A
:103070001010FF101000024223124A867F00000148
:1030800046807F000000080808F80808081010FFB4
:10309000101010F000001030101F088848300E018A
:1030A0004080403F00000014A4442434AD662494C2
:1030B0000444A414000008090808090909FD0909C5
:1030C0000B08080908000000829292929292929254
:1030D0009292FE00000080804846201008070810E9
:1030E00028464080800008F714549414F40480703B
:1030F0008F0808F808001D13115599513F91412080
:10310000130C334080000000FC242424FC252624DA
:10311000FC242424040040308F80844C5525252530
:10312000554C80808000106002CC8040201E02023E
:10313000023E4040400004047E018080834D5121C6
:1031400051498780800000FE20203F2000FC24E4BD
:10315000242223E20000807F0101FF80601F804164
:103160002618264180000010101010D030FF30D0FB
:1031700010101010000010080402090808FF0808C9
:10318000090204081000002020A86C2A3928A82A67
:103190006CA82020000002828190924A4945242296
:1031A00010080102020090523410FF103452807057
:1031B0008F0808F80800829A566322528E008040D9
:1031C000330C3340800000E000FF10200888780FA7
:1031D00008E808088800010000FF00100C83442361
:1031E000180718628100201008F75454545454549E
:1031F00054F404040000809090494D57252525552E
:103200004D45808080007E4A52FE524A7E2020201A
:10321000FF20222C2000E90969076505B540300E22
:10322000010E30408000808080BEA2A2A2A2A2A295
:10323000A2BE8080800000000006050404044484CF
:10324000443C000000000202F292929292FE92929E
:103250009292F20202008080874C5424344F4444FE
:103260008484878080000484848484FC4030CC0B78
:103270000808F8080800007F201010088040211678
:103280000816214080000000FE1292B2D292929263
:10329000D2B29E00000040300F0484641F04040476
:1032A000FF0404040000000202FAAAAFAAAAAAAF0F
:1032B000AAFA0202000012120A7E0A0B0AFE0A2A69
:1032C0004A3E0A121200000000FC54545655545451
:1032D00054FC000000004030000339414145594191
:1032E000417300083000000404745454555654547B
:1032F000547404040000848341211D05050505055F
:103300007D818185E30000FC848484FC0010101022
:103310001010FF101000003F1010103F00000106B9
:1033200040807F00000000F8010600F0121212F247
:10333000020202FE000000FF0000001F1111111F19
:103340000040807F00000000D7B4CCAC000000003B
:10335000D4CBB6AFBEB2D6B900000000B0E6B1BE65
:1033600000000000BBB6D3ADCAB9D3C30000000053
:10337000C6C1C4BBC9E8D6C300000000B2CECAFDB6
:10338000C9E8D6C300000000C1C1B6C800000000F3
:10339000C1E9C3F4B6C80000B7A2C9E4B9A6C2CA5D
:1033A00000000000BBD6B8B4C4ACC8CF0000000019
:1033B000CFA2C6C1CAB1BCE400000000D4CBB6AFF6
:1033C000C4BFB1EA00000000BEB2D6B9C4BFB1EAC2
:1033D00000000000C3BBD3D0C4BFB1EA00000000AE
:1033E000D3D0C8CBBEE0C0EB00000000CEDEC8CB1F
:1033F000BEE0C0EB00000000C7EBB0B4C8B7C8CF58
:10340000BCFC000024340008000000203002000052
:1034100028010008283500083002002008070000B5
:103420008401000801182302041364331A080711E9
:10343000130918240805031AF8105A0510411A48F0
:10344000105A0210191F119AE03032069AEC10112E
:1034500022019A7C101A0310AA703019109A5C503D
:103460002930DAA440AAF07019101A90102978694E
:1034700040DA9830DA8830AAB0202207DAD410DA9D
:10348000BC10DAC810AA50102119522113151B1FA5
:103490000801010102010E1B6515701D03050602DE
:1034A000251BF119746C0402090C6D0405030B0C47
:1034B0004F0502040E05050C1E0607060C064E1AE3
:1034C00085547C0708070C7C0806080C27090A09A4
:1034D0000D090A137D167D080A090A0C270B0B0B30
:1034E000040B0B13C91A2008080C0C0C060C0C1347
:1034F000B9174808080D0D0D090D0D0C270E0E0EFD
:10350000050E0E3B3D14B412AA32552E051222337D
:10351000440901171C5AA40D3319E22C02030404B8
:083520001C060708C9298F11E0
:04000005080000ED02
:00000001FF
